:10000000210003008001300001060000241117E0E8
:1000100081042280248003E0810022802EFF8982D7
:100020002400FF062400FF262400FF462400FF666C
:1000300024002F2524000065244000E0240000E176
:100040000504E0E080E020816F00E0FE1D004545F2
:10005000C91FFF031F1FFFFF1F0045450101252585
:10006000693025022400202593002087C907274BEB
:1000700069802718613007032400036721006400AA
:1000800061200707052007E0D0E083032400046710
:10009000210064001CE0838321002900CE07E2FCDC
:1000A0001C07E2E210070705090405E0090205E163
:1000B00000E1E0E00140E0E092E02088117F45456A
:1000C00051008C022301469E240001672100640038
:1000D0006981271E242000E060E08A03240006676F
:1000E00021006400613007032400036721006400DD
:1000F00061200707052007E0C8E0830324000567A7
:10010000210064001EE0838321004500D607E2FC45
:100110001E07E2E22400006B2400008C240000CCC7
:10012000D1014B03C9004B021F016B6B090407E0AF
:10013000090207E100E1E0E00140E0E082E0208820
:10014000240001672100640069822709240000E07F
:10015000810022801F1FFFFF81042288248003E08A
:100160008100228024000167210064006983270444
:1001700010E8E8C3240001672100640069842704B3
:1001800010E8E8E42400016721006400240002670D
:1001900024000027810020875100C30223015F9EB5
:1001A0005100840223017B9E2301179E2400000539
:1001B000110F65E0690FE0032301179E21006C0019
:1001C00061200504052005E0C8E0833421007500A6
:1001D000C805E232117F4545090405E0090205E141
:1001E00000E1E0E00140E0F092F02088D1026B2BCA
:1001F00001018CE050CAE0200B058AE00902E0E032
:1002000090E02581D1054B07C88AE10F108A8A8DBD
:100210002300AE9E01018CE050CAE017210091003E
:1002200010E8E1EE2701EE8D51208D071C8DEEEEDA
:10023000008A8D8D2300AE9E01018CE06ECAE0FA2B
:1002400021009D00C9074506C9014B05D1004B029D
:10025000D1016B03108B8BCC1F016B6BC9016B0E33
:100260005100CC04C900450C0501CCCC6900CC0A76
:1002700051008C09010005E16120E1040520E1E164
:10028000910C23802100A30091082380D0E1E0029B
:100290002300F59E82F020884F1F056D511F050435
:1002A00001010505673005C3210013001025250550
:1002B000673005C0210013002484008F24000BCF79
:1002C000090205E00005E0E00906E0E000E0EFEFEC
:1002D00001018CCD04CDCACD5100CD3E110C4B0097
:1002E0005104001C5108002F1904CDCD09048DE0E4
:1002F000010CE0E090E026915100F1367101CD0C47
:1003000090E026926900F202240001CD7102CD082E
:1003100090E026936900F302240002CD7103CD041E
:1003200090E026946900F402240003CD09028CE1D8
:10033000C9044B020104E1E10902CD00EEE1CF1155
:1003400000CD8C8C1F0745455704CDE22100F400F9
:100350001902CDCD09048DE00108E0E090E066913E
:100360005100F21C108D8DD15101CD0490E06693A7
:100370006900F402240001CD108D8DD309038CE1B6
:10038000C9044B020108E1E10903CD00EEE1CF1100
:1003900000CD8C8C1F0745455702CDCE2100F400BF
:1003A0001901CDCD09048DE090E0E6915100F409EA
:1003B000108D8DD309048CE1C9044B020110E1E1D9
:1003C000E0E1EF9101018C8C1F0745452100B4004D
:1003D000209E00002484009524000BD5090205E02E
:1003E0000005E0E00906E0E000E0F5F50B024BE077
:1003F0001103E0E00102E0E1C9044B04108C8CE041
:10040000E1003580210107002EFF879124000100C3
:1004100008E1000008E18CC0EEC0D51110E9E9F652
:10042000C9006B0308E1CAE000E0F6F601018CE0C8
:1004300008E1E097249030D713F06500270000E032
:100440000906E0E180E1A8951F026B6B1EE065657F
:100450000118E0012C800501209E0000110F651895
:10046000270118385120382C1C381818090638E094
:1004700090E0A895D71EF7FB6F0097FA010438E1CA
:10048000D0E165091EE165650504F5E10504F6F5B1
:1004900010E1E1F624000497249030D780E0A8957D
:1004A000210118001CE165651C38656501183801DB
:1004B0002C200158090458E0090258E100E1E0E06D
:1004C0000140E0F092F020881D026B6B15016B6B10
:1004D0002400008C1D016B6BD1014B04C9004B0340
:1004E000108B8BCC1F016B6B82F02088010058E0D1
:1004F000240001E16120E0050520E0E008E0E1E101
:10050000810423812101180008E0E1E181002381B9
:1005100021011800209E0000109E9EDE010005E1D2
:100520006120E1040520E1E1910C238021014D00CF
:1005300091082380D6E1E0FAD1026B0C110F65E03F
:10054000690FE0092301179E110F65E0570FE0FEC8
:10055000090405E0090205E100E1E0E00140E0E016
:1005600092E020882300F59E2301179E110F65E07D
:100570006F00E0FE10DEDE9E209E00000904C3E056
:10058000010CE0E090E026915100F11811F01111FA
:10059000F300718711C067E05100E0035180E00E65
:1005A00021017A00D10FE902240000EC240000F0C0
:1005B000C90EE9021F1FF0F0111F2929090489E063
:1005C0000108E0E080E066905700ECEDF3006C87F6
:1005D00021016B00111F2929090489E0010CE0E0C9
:1005E00080E0269121015F00209E0000090484E044
:1005F000010CE0E090E026915100F10D10F1F1F0D6
:1006000011F01010F500308711C067E06900E005B7
:10061000C91FE904240006C024800880E100208F5F
:100620000904C4E0010CE0E080E02691209E000077
:00000001FF
